:060000000A128A11122809
:10000800FE00030EF4000408F5000A08F600831247
:1000180003137F08F7000A128A1135280A128A1179
:10002800E02900308A000408840A82070034533427
:1000380065347234693461346C34203469346E3414
:1000480074346534723472347534703474340034F2
:10005800203420344B346534793420343A34203415
:1000680000341A08F3007308F80078080A128A1195
:10007800D4210A128A1180300A128A1114210A1214
:100088008A1101300A128A1197210A128A11C03086
:100098000A128A1114210A128A1112300A128A11BC
:1000A80097210A128A11C8300A128A1114210A12D9
:1000B8008A1178080A128A1144210A128A11FB014E
:1000C800FC01C3307C02513003197B02031C6D28EC
:1000D8006E287028802880280130FB070318FC0A46
:1000E8000030FC07C3307C02513003197B02031C2B
:1000F8007E287F2870288028FB01FC01C3307C0201
:10010800513003197B02031C8A288B288D289D28CF
:100118009D280130FB070318FC0A0030FC07C33098
:100128007C02513003197B02031C9B289C288D28D4
:100138009D28770883120313FF0076088A00750844
:100148008400740E8300FE0E7E0E090083160313CE
:1001580088010818B028B428831603130715B72890
:100168008316031307110719BA28BE288316031329
:100178008714C1288316031387108718C428C82832
:10018800831603130714CB2883160313071038307C
:100198000A128A11E4200A128A110E300A128A11F0
:1001A800E4200A128A1106300A128A11E4200A127F
:1001B8008A1180300A128A11E4200A128A11080072
:1001C80083120313A0002008880007108710071562
:1001D800F901FA017A08803AFF0083307F02031D93
:1001E800F728E8307902031CFA28FB28FD28102993
:1001F80010290130F9070318FA0A0030FA077A08BB
:10020800803AFF0083307F02031D0C29E830790211
:10021800031C0F291029FD28831203130711080056
:10022800F000700883120313880007108710071561
:10023800F901FA017A08803AFF0083307F02031D32
:100248002729E8307902031C2A292B292D2940293E
:1002580040290130F9070318FA0A0030FA077A082A
:10026800803AFF0083307F02031D3C29E830790281
:10027800031C3F2940292D29831203130711080065
:10028800F0007008831203138800071487100715FD
:10029800F901FA017A08803AFF0083307F02031DD2
:1002A8005729E8307902031C5A295B295D297029EE
:1002B80070290130F9070318FA0A0030FA077A089A
:1002C800803AFF0083307F02031D6C29E8307902F1
:1002D800031C6F2970295D29831203130711080075
:1002E800831603138801C03083120313A100210869
:1002F8008B042030831603138C000A128A11AA205B
:100308000A128A110A128A11B8210A128A118C2932
:1003180001300A128A11E4200A128A118C298C29C8
:100328000A128A111228F200AA29720884000A12F5
:100338008A1115200A128A110A128A1144210A12F6
:100348008A110130F1007108F207AA2972088400A5
:100358000A128A1115200A128A110038031DB529BC
:10036800B6299929B7290800831603138717871B0D
:10037800BE29C229831603130717C5298316031339
:10038800071322309800903083120313980011301D
:10039800831603139900831203138C120C1208009E
:1003A800F0007008831203139900DA290C1EDD2966
:1003B800DE29DA29DF290800F901FA01FB01FC012D
:0803C80083010A128A11742955
:02400E007AFF37
:00000001FF
