:100000000A128A11D42E00308A000408840A82075A
:100010000034203420342034203420342034203460
:100020002034203420342034203420342034203430
:10003000203400344E3468346F346D34203433341B
:1000400020342D34203452344134493420344B345C
:100050003634333400344F3462347334743461349E
:1000600063346C34653444346534743465346334D7
:0800700074346534643400347B
:100DA800F301F40183010A128A11742F38300A12F0
:100DB8008A1114270A128A110C300A128A11142770
:100DC8000A128A1106300A128A1114270A128A1185
:100DD80080300A128A1114270A128A110800F200B8
:100DE800062F720884000A128A1103200A128A1137
:100DF8000A128A1144270A128A110130F100710877
:100E0800F207062F720884000A128A1103200A12B8
:100E18008A110038031D112F122FF52E132F0800E9
:100E2800F000700883120313860007108710071557
:100E3800F301F4017408803AFF0083307F02031D38
:100E4800272FE8307302031C2A2F2B2F2D2F402F1A
:100E5800402F0130F3070318F40A0030F407740830
:100E6800803AFF0083307F02031D3C2FE830730275
:100E7800031C3F2F402F2D2F831203130711080047
:100E8800F0007008831203138600071487100715F3
:100E9800F301F4017408803AFF0083307F02031DD8
:100EA800572FE8307302031C5A2F5B2F5D2F702FCA
:100EB800702F0130F3070318F40A0030F4077408A0
:100EC800803AFF0083307F02031D6C2FE8307302E5
:100ED800031C6F2F702F5D2F831203130711080057
:100EE8008316031307118710071000300718013005
:100EF8008600FF3088000A128A11DA260A128A113F
:100F080080300A128A1114270A128A1112300A1222
:100F18008A11F3260A128A11912F83120313081CCF
:100F2800962F972FEE2FC0300A128A1114270A1213
:100F38008A1123300A128A11F3260A128A11F30140
:100F4800F4017408803AFF0083307F02031DAE2F3E
:100F5800E8307302031CB12FB22FB42FC82FC82F4B
:100F68000130F3070318F40A0030F4077408803AD4
:100F7800FF0083307F02031DC32FE8307302031C78
:100F8800C62FC72FB42FC82FF301F4017408803A75
:100F9800FF0083307F02031DD32FE8307302031C48
:100FA800D62FD72FD92F912F912F0130F307031860
:100FB800F40A0030F4077408803AFF0083307F0297
:100FC800031DE82FE8307302031CEB2FEC2FD92FF9
:100FD800912F912FC0300A128A1114270A128A11F0
:100FE80001300A128A11F3260A128A11912F912FC1
:080FF800912F0A128A11002852
:02400E007AFF37
:00000001FF
